{
  "contractName": "ToDo",
  "abi": [
    {
      "anonymous": false,
      "inputs": [
        {
          "indexed": false,
          "name": "id",
          "type": "uint256"
        },
        {
          "indexed": false,
          "name": "task",
          "type": "string"
        },
        {
          "indexed": false,
          "name": "time",
          "type": "string"
        }
      ],
      "name": "LogTaskAdded",
      "type": "event"
    },
    {
      "constant": true,
      "inputs": [],
      "name": "getTaskCount",
      "outputs": [
        {
          "name": "length",
          "type": "uint256"
        }
      ],
      "payable": false,
      "stateMutability": "view",
      "type": "function"
    },
    {
      "constant": true,
      "inputs": [
        {
          "name": "index",
          "type": "uint256"
        }
      ],
      "name": "getTaskIdAt",
      "outputs": [
        {
          "name": "id",
          "type": "uint256"
        }
      ],
      "payable": false,
      "stateMutability": "view",
      "type": "function"
    },
    {
      "constant": true,
      "inputs": [
        {
          "name": "id",
          "type": "uint256"
        }
      ],
      "name": "getTask",
      "outputs": [
        {
          "name": "task",
          "type": "string"
        },
        {
          "name": "time",
          "type": "string"
        }
      ],
      "payable": false,
      "stateMutability": "view",
      "type": "function"
    },
    {
      "constant": false,
      "inputs": [
        {
          "name": "id",
          "type": "uint256"
        },
        {
          "name": "task",
          "type": "string"
        },
        {
          "name": "time",
          "type": "string"
        }
      ],
      "name": "addTask",
      "outputs": [
        {
          "name": "successful",
          "type": "bool"
        }
      ],
      "payable": false,
      "stateMutability": "nonpayable",
      "type": "function"
    }
  ],
  "bytecode": "0x608060405234801561001057600080fd5b506106c8806100206000396000f300608060405260043610610062576000357c0100000000000000000000000000000000000000000000000000000000900463ffffffff1680631d65e77e14610067578063c17a340e14610179578063f5d02123146101a4578063fb8820c2146101e5575b600080fd5b34801561007357600080fd5b50610092600480360381019080803590602001909291905050506102b6565b604051808060200180602001838103835285818151815260200191508051906020019080838360005b838110156100d65780820151818401526020810190506100bb565b50505050905090810190601f1680156101035780820380516001836020036101000a031916815260200191505b50838103825284818151815260200191508051906020019080838360005b8381101561013c578082015181840152602081019050610121565b50505050905090810190601f1680156101695780820380516001836020036101000a031916815260200191505b5094505050505060405180910390f35b34801561018557600080fd5b5061018e610419565b6040518082815260200191505060405180910390f35b3480156101b057600080fd5b506101cf60048036038101908080359060200190929190505050610426565b6040518082815260200191505060405180910390f35b3480156101f157600080fd5b5061029c60048036038101908080359060200190929190803590602001908201803590602001908080601f0160208091040260200160405190810160405280939291908181526020018383808284378201915050505050509192919290803590602001908201803590602001908080601f0160208091040260200160405190810160405280939291908181526020018383808284378201915050505050509192919290505050610449565b604051808215151515815260200191505060405180910390f35b606080600080600085815260200190815260200160002090508060000181600101818054600181600116156101000203166002900480601f01602080910402602001604051908101604052809291908181526020018280546001816001161561010002031660029004801561036c5780601f106103415761010080835404028352916020019161036c565b820191906000526020600020905b81548152906001019060200180831161034f57829003601f168201915b50505050509150808054600181600116156101000203166002900480601f0160208091040260200160405190810160405280929190818152602001828054600181600116156101000203166002900480156104085780601f106103dd57610100808354040283529160200191610408565b820191906000526020600020905b8154815290600101906020018083116103eb57829003601f168201915b505050505090509250925050915091565b6000600180549050905090565b600060018281548110151561043757fe5b90600052602060002001549050919050565b6000604080519081016040528084815260200183815250600080868152602001908152602001600020600082015181600001908051906020019061048e9291906105f7565b5060208201518160010190805190602001906104ab9291906105f7565b5090505060018490806001815401808255809150509060018203906000526020600020016000909192909190915055507f465dcef349131c00c73684c73bf8af8da869c54044b9b12d80e66ec654c717eb848484604051808481526020018060200180602001838103835285818151815260200191508051906020019080838360005b8381101561054957808201518184015260208101905061052e565b50505050905090810190601f1680156105765780820380516001836020036101000a031916815260200191505b50838103825284818151815260200191508051906020019080838360005b838110156105af578082015181840152602081019050610594565b50505050905090810190601f1680156105dc5780820380516001836020036101000a031916815260200191505b509550505050505060405180910390a1600190509392505050565b828054600181600116156101000203166002900490600052602060002090601f016020900481019282601f1061063857805160ff1916838001178555610666565b82800160010185558215610666579182015b8281111561066557825182559160200191906001019061064a565b5b5090506106739190610677565b5090565b61069991905b8082111561069557600081600090555060010161067d565b5090565b905600a165627a7a723058207f5c37afed5d5a9db5eb33cdab61a2e2ccc848a9d3f742c473fd30f20db4988e0029",
  "source": "pragma solidity ^0.4.18;\n\ncontract ToDo {\n    struct Routine { //structure for storing data\n        string task;\n        string time;\n    }\n    event LogTaskAdded(uint id, string task, string time); //logging the event after task gets addded\n\n    mapping(uint => Routine) private routines;\n    uint[] private ids;\n\n    //function for getting all the task counts\n    function getTaskCount() public view returns (uint length) {\n        return ids.length;\n    }\n\n    //function for getting the task id\n    function getTaskIdAt(uint index) public view returns (uint id) {\n        return ids[index];\n    }\n\n    //function for getting the task detail by supplying the task id\n    function getTask(uint id) public view returns (string task, string time) {\n        Routine storage routine = routines[id];\n        return (\n            routine.task,\n            routine.time);\n    }\n\n    //function for adding task\n    function addTask(uint id, string task, string time) public returns (bool successful) {\n        routines[id] = Routine({\n            task: task,\n            time: time\n            });\n        ids.push(id);\n        LogTaskAdded(id, task, time);\n        return true;\n    }\n\n}",
  "sourcePath": "/home/dimasprase/Documents/BlockchainCouncil/ToDo/contracts/todo.sol",
  "compiler": {
    "name": "solc",
    "version": "0.4.24+commit.e67f0147.Emscripten.clang"
  },
  "schemaVersion": "2.0.1",
  "updatedAt": "2018-12-03T13:36:16.065Z"
}